:1000000015C01CC01BC01AC019C018C017C016C02C
:1000100015C014C013C012C011C010C00FC00A0018
:1000200023002A005265736574210A0011241FBE43
:10003000CFE5D2E0DEBFCDBF02D07AC1E1CF0F93D2
:100040001F93DF93CF930F92CDB7DEB789E690E091
:100050009093610080936000BC9AB99ABA98A29A72
:1000600087B58F7787BD87B5826087BD07B400FEEF
:10007000FDCF87B5846087BD80B7806180BF80B7C2
:10008000816080BF80B7806880BF389A86B1876002
:1000900086B9379A84E290E050D01DBC82E290E0AD
:1000A0004CD000E010E0369A3699FECF0E5F0DBDC1
:1000B00084B18983898130D085B1898389812CD0AD
:1000C0001F5F103881F780E290E037D08EE190E03A
:1000D000E3CF0FB680959AE0F8947BE27A95F1F73A
:1000E00008F0BC9808F4BC9A86959A95B1F70FBEB3
:1000F00008950FB680E8F894B39BFECFB399FECF76
:1001000096E19A95F1F79CE29A95F1F78695B39965
:100110008068C8F70FBE08958A3019F48DE001D0C9
:100120008AE0FF93EF93E0916000F09161003097D7
:1001300009F00995EF91FF910895FC0185918030B8
:1001400011F0EADFFBCF0895FF27E0E230E247FF3E
:100150000CC0419597FF09C0EDE2609570958095C0
:100160009095611D711D811D911D27FF02C0219574
:1001700030E350E2AA27660F771F881F991FAA1F36
:10018000A41710F0A41B63955A95A9F7AA3008F09C
:10019000A95FA05DAF93F395611571058105910588
:1001A00041F7ED3211F4EF93F395F21718F43F9302
:1001B000F395FBCF8F91B0DFFA95E1F70895DF93C8
:1001C000CF93CDB7DEB72596E991F991859180302F
:1001D00021F0853229F0A0DFF9CFCF91DF9108958A
:1001E00020E0E89455915532B1F3503311F46894FE
:1001F00055915A3348F4505380F3220F022E220FA8
:10020000220F200D250FF4CF0EF42195899199919D
:10021000533609F3533729F1533559F1BC01882777
:100220009927E8945C3621F48991999168945591C5
:10023000543639F446EF7EF077FF0DC08FEF9FEF15
:100240000AC055374AE039F0583540E121F05236BE
:1002500042E009F0C2CFFF93EF9376DFEF91FF9179
:10026000B5CFFF93EF93FC0181918030B9F354DF58
:10027000FBCFFF93EF9361DFF1CF0B01DC01ED9139
:10028000FD912227332744275527E8949AE001C09F
:10029000319660816032E1F3A8F16D3211F4689417
:1002A000F7CF6A3378F5603368F171F498E03196EE
:1002B0006081613248F1623611F492E003C0683720
:1002C00019F490E1319660816132F0F0613608F006
:1002D00060526053B8F06A3018F067506A3090F09E
:1002E000691780F481E2771B08F4790F76955795AA
:1002F0004795379527958A95B9F7260F381F481FD8
:10030000581FE0CF80E001C081E04EF466272095C1
:10031000309540955095261F361F461F561FFE9359
:10032000EE93D0012D933D934D935D931124089549
:04033000F894FFCF6F
:00000001FF
